{
  "transactions": [
    {
      "hash": "0x860e22ec5d02f62196f30237fc5dd7622e3385e7c26c3f5543fcc4a3bd491739",
      "transactionType": "CALL",
      "contractName": null,
      "contractAddress": "0x4aa1df02688241e4c665d4837a7c201cddf9f3cd",
      "function": "approve(address,uint256)",
      "arguments": [
        "0x000000000022D473030F116dDEE9F6B43aC78BA3",
        "115792089237316195423570985008687907853269984665640564039457584007913129639935"
      ],
      "transaction": {
        "from": "0x9c760302031d1122b214c5869e526bfd57f04cf1",
        "to": "0x4aa1df02688241e4c665d4837a7c201cddf9f3cd",
        "gas": "0xf964",
        "value": "0x0",
        "input": "0x095ea7b3000000000000000000000000000000000022d473030f116ddee9f6b43ac78ba3ffffffffffffffffffffffffffffffffffffffffffffffffffffffffffffffff",
        "nonce": "0x43",
        "chainId": "0x2105"
      },
      "additionalContracts": [],
      "isFixedGasLimit": false
    },
    {
      "hash": "0xa2713bb8e0e9f1613c88dbf05784c1de479105cca0013556133cdabcb5406336",
      "transactionType": "CALL",
      "contractName": null,
      "contractAddress": "0xbb9d7298273dfebe2706aafb06d7f1c10e8b356a",
      "function": "approve(address,uint256)",
      "arguments": [
        "0x000000000022D473030F116dDEE9F6B43aC78BA3",
        "115792089237316195423570985008687907853269984665640564039457584007913129639935"
      ],
      "transaction": {
        "from": "0x9c760302031d1122b214c5869e526bfd57f04cf1",
        "to": "0xbb9d7298273dfebe2706aafb06d7f1c10e8b356a",
        "gas": "0xf963",
        "value": "0x0",
        "input": "0x095ea7b3000000000000000000000000000000000022d473030f116ddee9f6b43ac78ba3ffffffffffffffffffffffffffffffffffffffffffffffffffffffffffffffff",
        "nonce": "0x44",
        "chainId": "0x2105"
      },
      "additionalContracts": [],
      "isFixedGasLimit": false
    },
    {
      "hash": "0x27f946f15ae8b57683532a646354c1ddf5324490a76d559b316acf3331eb6f1c",
      "transactionType": "CALL",
      "contractName": null,
      "contractAddress": "0x000000000022d473030f116ddee9f6b43ac78ba3",
      "function": "approve(address,address,uint160,uint48)",
      "arguments": [
        "0x4aA1dF02688241e4c665D4837a7c201CddF9F3CD",
        "0x7C5f5A4bBd8fD63184577525326123B519429bDc",
        "1461501637330902918203684832716283019655932542975",
        "281474976710655"
      ],
      "transaction": {
        "from": "0x9c760302031d1122b214c5869e526bfd57f04cf1",
        "to": "0x000000000022d473030f116ddee9f6b43ac78ba3",
        "gas": "0x1112d",
        "value": "0x0",
        "input": "0x87517c450000000000000000000000004aa1df02688241e4c665d4837a7c201cddf9f3cd0000000000000000000000007c5f5a4bbd8fd63184577525326123b519429bdc000000000000000000000000ffffffffffffffffffffffffffffffffffffffff0000000000000000000000000000000000000000000000000000ffffffffffff",
        "nonce": "0x45",
        "chainId": "0x2105"
      },
      "additionalContracts": [],
      "isFixedGasLimit": false
    },
    {
      "hash": "0x7c26aa4cfade0d2742a067943a0ab751725ef11f0f40c8de8173726c3305e2de",
      "transactionType": "CALL",
      "contractName": null,
      "contractAddress": "0x000000000022d473030f116ddee9f6b43ac78ba3",
      "function": "approve(address,address,uint160,uint48)",
      "arguments": [
        "0xbB9d7298273dFEbe2706aafb06d7f1c10E8B356a",
        "0x7C5f5A4bBd8fD63184577525326123B519429bDc",
        "1461501637330902918203684832716283019655932542975",
        "281474976710655"
      ],
      "transaction": {
        "from": "0x9c760302031d1122b214c5869e526bfd57f04cf1",
        "to": "0x000000000022d473030f116ddee9f6b43ac78ba3",
        "gas": "0x1112d",
        "value": "0x0",
        "input": "0x87517c45000000000000000000000000bb9d7298273dfebe2706aafb06d7f1c10e8b356a0000000000000000000000007c5f5a4bbd8fd63184577525326123b519429bdc000000000000000000000000ffffffffffffffffffffffffffffffffffffffff0000000000000000000000000000000000000000000000000000ffffffffffff",
        "nonce": "0x46",
        "chainId": "0x2105"
      },
      "additionalContracts": [],
      "isFixedGasLimit": false
    },
    {
      "hash": "0xbdc800b53e0832e9b059eafb564fd151b74c8ce84931ed63f78a21b5ce968e8e",
      "transactionType": "CALL",
      "contractName": null,
      "contractAddress": "0x7c5f5a4bbd8fd63184577525326123b519429bdc",
      "function": "modifyLiquidities(bytes,uint256)",
      "arguments": [
        "0x0000000000000000000000000000000000000000000000000000000000000040000000000000000000000000000000000000000000000000000000000000008000000000000000000000000000000000000000000000000000000000000000030212120000000000000000000000000000000000000000000000000000000000000000000000000000000000000000000000000000000000000000000000000300000000000000000000000000000000000000000000000000000000000000600000000000000000000000000000000000000000000000000000000000000220000000000000000000000000000000000000000000000000000000000000026000000000000000000000000000000000000000000000000000000000000001a00000000000000000000000004aa1df02688241e4c665d4837a7c201cddf9f3cd000000000000000000000000bb9d7298273dfebe2706aafb06d7f1c10e8b356a0000000000000000000000000000000000000000000000000000000000000000000000000000000000000000000000000000000000000000000000000000003c000000000000000000000000c3cee78d0825b24c684355de4e6fbd51f0b940c0ffffffffffffffffffffffffffffffffffffffffffffffffffffffffffffff88000000000000000000000000000000000000000000000000000000000000007800000000000000000000000000000000000000000000000000000000000f424000000000000000000000000000000000ffffffffffffffffffffffffffffffff00000000000000000000000000000000ffffffffffffffffffffffffffffffff0000000000000000000000009c760302031d1122b214c5869e526bfd57f04cf10000000000000000000000000000000000000000000000000000000000000180000000000000000000000000000000000000000000000000000000000000000000000000000000000000000000000000000000000000000000000000000000200000000000000000000000004aa1df02688241e4c665d4837a7c201cddf9f3cd0000000000000000000000000000000000000000000000000000000000000020000000000000000000000000bb9d7298273dfebe2706aafb06d7f1c10e8b356a",
        "1763901291"
      ],
      "transaction": {
        "from": "0x9c760302031d1122b214c5869e526bfd57f04cf1",
        "to": "0x7c5f5a4bbd8fd63184577525326123b519429bdc",
        "gas": "0x94b3d",
        "value": "0x0",
        "input": "0xdd46508f0000000000000000000000000000000000000000000000000000000000000040000000000000000000000000000000000000000000000000000000006922ff6b00000000000000000000000000000000000000000000000000000000000003400000000000000000000000000000000000000000000000000000000000000040000000000000000000000000000000000000000000000000000000000000008000000000000000000000000000000000000000000000000000000000000000030212120000000000000000000000000000000000000000000000000000000000000000000000000000000000000000000000000000000000000000000000000300000000000000000000000000000000000000000000000000000000000000600000000000000000000000000000000000000000000000000000000000000220000000000000000000000000000000000000000000000000000000000000026000000000000000000000000000000000000000000000000000000000000001a00000000000000000000000004aa1df02688241e4c665d4837a7c201cddf9f3cd000000000000000000000000bb9d7298273dfebe2706aafb06d7f1c10e8b356a0000000000000000000000000000000000000000000000000000000000000000000000000000000000000000000000000000000000000000000000000000003c000000000000000000000000c3cee78d0825b24c684355de4e6fbd51f0b940c0ffffffffffffffffffffffffffffffffffffffffffffffffffffffffffffff88000000000000000000000000000000000000000000000000000000000000007800000000000000000000000000000000000000000000000000000000000f424000000000000000000000000000000000ffffffffffffffffffffffffffffffff00000000000000000000000000000000ffffffffffffffffffffffffffffffff0000000000000000000000009c760302031d1122b214c5869e526bfd57f04cf10000000000000000000000000000000000000000000000000000000000000180000000000000000000000000000000000000000000000000000000000000000000000000000000000000000000000000000000000000000000000000000000200000000000000000000000004aa1df02688241e4c665d4837a7c201cddf9f3cd0000000000000000000000000000000000000000000000000000000000000020000000000000000000000000bb9d7298273dfebe2706aafb06d7f1c10e8b356a",
        "nonce": "0x47",
        "chainId": "0x2105"
      },
      "additionalContracts": [],
      "isFixedGasLimit": false
    }
  ],
  "receipts": [
    {
      "status": "0x1",
      "cumulativeGasUsed": "0x2c4ec35",
      "logs": [
        {
          "address": "0x4aa1df02688241e4c665d4837a7c201cddf9f3cd",
          "topics": [
            "0x8c5be1e5ebec7d5bd14f71427d1e84f3dd0314c0f7b2291e5b200ac8c7c3b925",
            "0x0000000000000000000000009c760302031d1122b214c5869e526bfd57f04cf1",
            "0x000000000000000000000000000000000022d473030f116ddee9f6b43ac78ba3"
          ],
          "data": "0xffffffffffffffffffffffffffffffffffffffffffffffffffffffffffffffff",
          "blockHash": "0x9fc192ad84b5bb20c519916501e856969143dc89b9a2b6c89053722b11f097de",
          "blockNumber": "0x24c4a48",
          "blockTimestamp": "0x6922f173",
          "transactionHash": "0x860e22ec5d02f62196f30237fc5dd7622e3385e7c26c3f5543fcc4a3bd491739",
          "transactionIndex": "0x193",
          "logIndex": "0x342",
          "removed": false
        }
      ],
      "logsBloom": "0x00000000000000000000000000000000000000000000000000000000000000000000000000000000000000000000000000000000800000000000000000200000000000000000000000004000000000000001000000000800000000000000000000000000000000000000000000000000000000000000000200000000000000000000000000000000000000000000010000000000000000000000000000000000020000000000011000000000000000000000000000000000000000000000000000000000000000000000000000000010000000000000000000000000000000000010000000000000000000000000000000000000000000000000000000000000",
      "type": "0x2",
      "transactionHash": "0x860e22ec5d02f62196f30237fc5dd7622e3385e7c26c3f5543fcc4a3bd491739",
      "transactionIndex": "0x193",
      "blockHash": "0x9fc192ad84b5bb20c519916501e856969143dc89b9a2b6c89053722b11f097de",
      "blockNumber": "0x24c4a48",
      "gasUsed": "0xb48f",
      "effectiveGasPrice": "0x2180a",
      "from": "0x9c760302031d1122b214c5869e526bfd57f04cf1",
      "to": "0x4aa1df02688241e4c665d4837a7c201cddf9f3cd",
      "contractAddress": null,
      "l1BaseFeeScalar": "0x8dd",
      "l1BlobBaseFee": "0x1",
      "l1BlobBaseFeeScalar": "0x101c12",
      "l1Fee": "0x26b0aa3d",
      "l1GasPrice": "0x4990e63",
      "l1GasUsed": "0x640"
    },
    {
      "status": "0x1",
      "cumulativeGasUsed": "0x2c5a0c3",
      "logs": [
        {
          "address": "0xbb9d7298273dfebe2706aafb06d7f1c10e8b356a",
          "topics": [
            "0x8c5be1e5ebec7d5bd14f71427d1e84f3dd0314c0f7b2291e5b200ac8c7c3b925",
            "0x0000000000000000000000009c760302031d1122b214c5869e526bfd57f04cf1",
            "0x000000000000000000000000000000000022d473030f116ddee9f6b43ac78ba3"
          ],
          "data": "0xffffffffffffffffffffffffffffffffffffffffffffffffffffffffffffffff",
          "blockHash": "0x9fc192ad84b5bb20c519916501e856969143dc89b9a2b6c89053722b11f097de",
          "blockNumber": "0x24c4a48",
          "blockTimestamp": "0x6922f173",
          "transactionHash": "0xa2713bb8e0e9f1613c88dbf05784c1de479105cca0013556133cdabcb5406336",
          "transactionIndex": "0x194",
          "logIndex": "0x343",
          "removed": false
        }
      ],
      "logsBloom": "0x00000000000000000000000000000000000000000000000000000000000000000000000000000000000000000000000000000000800000000000000000200000000000000000000000004000000000000000000000000800000000000000000000000000000000000000000000000000000000000000000000000000000000000000000000000000000000000000010000800000000000000000000000000000020000020000010000000000000000000000000000000000000000000000000000000000000000000000000000000010800000000000000000000000000000000010000000000000000000000000000000000000000000000000000000000000",
      "type": "0x2",
      "transactionHash": "0xa2713bb8e0e9f1613c88dbf05784c1de479105cca0013556133cdabcb5406336",
      "transactionIndex": "0x194",
      "blockHash": "0x9fc192ad84b5bb20c519916501e856969143dc89b9a2b6c89053722b11f097de",
      "blockNumber": "0x24c4a48",
      "gasUsed": "0xb48e",
      "effectiveGasPrice": "0x2180a",
      "from": "0x9c760302031d1122b214c5869e526bfd57f04cf1",
      "to": "0xbb9d7298273dfebe2706aafb06d7f1c10e8b356a",
      "contractAddress": null,
      "l1BaseFeeScalar": "0x8dd",
      "l1BlobBaseFee": "0x1",
      "l1BlobBaseFeeScalar": "0x101c12",
      "l1Fee": "0x26b0aa3d",
      "l1GasPrice": "0x4990e63",
      "l1GasUsed": "0x640"
    },
    {
      "status": "0x1",
      "cumulativeGasUsed": "0x2c65b8d",
      "logs": [
        {
          "address": "0x000000000022d473030f116ddee9f6b43ac78ba3",
          "topics": [
            "0xda9fa7c1b00402c17d0161b249b1ab8bbec047c5a52207b9c112deffd817036b",
            "0x0000000000000000000000009c760302031d1122b214c5869e526bfd57f04cf1",
            "0x0000000000000000000000004aa1df02688241e4c665d4837a7c201cddf9f3cd",
            "0x0000000000000000000000007c5f5a4bbd8fd63184577525326123b519429bdc"
          ],
          "data": "0x000000000000000000000000ffffffffffffffffffffffffffffffffffffffff0000000000000000000000000000000000000000000000000000ffffffffffff",
          "blockHash": "0x9fc192ad84b5bb20c519916501e856969143dc89b9a2b6c89053722b11f097de",
          "blockNumber": "0x24c4a48",
          "blockTimestamp": "0x6922f173",
          "transactionHash": "0x27f946f15ae8b57683532a646354c1ddf5324490a76d559b316acf3331eb6f1c",
          "transactionIndex": "0x195",
          "logIndex": "0x344",
          "removed": false
        }
      ],
      "logsBloom": "0x00010000000000000000000000000000000000000000000000000000000000000000000000000000000000000000000000000000000000000000000000082000000000000000000000000000000000000000000000000000000000000000000000000000000000000000000000000000000000000000000000000000000000000020000000000010000000000000011000000000000000000000000000000000000000000000010000000000000000000000000000400000000000080000000200000000000000000000000000000010000000000000000040000000000000000000000000000000000000000000000000000000002000000000000000000400",
      "type": "0x2",
      "transactionHash": "0x27f946f15ae8b57683532a646354c1ddf5324490a76d559b316acf3331eb6f1c",
      "transactionIndex": "0x195",
      "blockHash": "0x9fc192ad84b5bb20c519916501e856969143dc89b9a2b6c89053722b11f097de",
      "blockNumber": "0x24c4a48",
      "gasUsed": "0xbaca",
      "effectiveGasPrice": "0x2180a",
      "from": "0x9c760302031d1122b214c5869e526bfd57f04cf1",
      "to": "0x000000000022d473030f116ddee9f6b43ac78ba3",
      "contractAddress": null,
      "l1BaseFeeScalar": "0x8dd",
      "l1BlobBaseFee": "0x1",
      "l1BlobBaseFeeScalar": "0x101c12",
      "l1Fee": "0x26b0aa3d",
      "l1GasPrice": "0x4990e63",
      "l1GasUsed": "0x6e7"
    },
    {
      "status": "0x1",
      "cumulativeGasUsed": "0x2c71657",
      "logs": [
        {
          "address": "0x000000000022d473030f116ddee9f6b43ac78ba3",
          "topics": [
            "0xda9fa7c1b00402c17d0161b249b1ab8bbec047c5a52207b9c112deffd817036b",
            "0x0000000000000000000000009c760302031d1122b214c5869e526bfd57f04cf1",
            "0x000000000000000000000000bb9d7298273dfebe2706aafb06d7f1c10e8b356a",
            "0x0000000000000000000000007c5f5a4bbd8fd63184577525326123b519429bdc"
          ],
          "data": "0x000000000000000000000000ffffffffffffffffffffffffffffffffffffffff0000000000000000000000000000000000000000000000000000ffffffffffff",
          "blockHash": "0x9fc192ad84b5bb20c519916501e856969143dc89b9a2b6c89053722b11f097de",
          "blockNumber": "0x24c4a48",
          "blockTimestamp": "0x6922f173",
          "transactionHash": "0x7c26aa4cfade0d2742a067943a0ab751725ef11f0f40c8de8173726c3305e2de",
          "transactionIndex": "0x196",
          "logIndex": "0x345",
          "removed": false
        }
      ],
      "logsBloom": "0x00010000000000000000000000000000000000000000000000000000000000000002000000000000000000000000000000000000000000000000000000082000000000000000000000000000000000004000000000000000000000000000000000000000000000000000000000000000000000000000000000000000000000000020000000000000000000000000010000000000000000000000000000000000000000000000010000000000000000000000000000000000000000080000000200000000000000000000000000000010000000000000000040000000000000000000000000000000000020000000000000000000002000000000000000000400",
      "type": "0x2",
      "transactionHash": "0x7c26aa4cfade0d2742a067943a0ab751725ef11f0f40c8de8173726c3305e2de",
      "transactionIndex": "0x196",
      "blockHash": "0x9fc192ad84b5bb20c519916501e856969143dc89b9a2b6c89053722b11f097de",
      "blockNumber": "0x24c4a48",
      "gasUsed": "0xbaca",
      "effectiveGasPrice": "0x2180a",
      "from": "0x9c760302031d1122b214c5869e526bfd57f04cf1",
      "to": "0x000000000022d473030f116ddee9f6b43ac78ba3",
      "contractAddress": null,
      "l1BaseFeeScalar": "0x8dd",
      "l1BlobBaseFee": "0x1",
      "l1BlobBaseFeeScalar": "0x101c12",
      "l1Fee": "0x26b0aa3d",
      "l1GasPrice": "0x4990e63",
      "l1GasUsed": "0x6e7"
    },
    {
      "status": "0x1",
      "cumulativeGasUsed": "0x2cdd0de",
      "logs": [
        {
          "address": "0x7c5f5a4bbd8fd63184577525326123b519429bdc",
          "topics": [
            "0xddf252ad1be2c89b69c2b068fc378daa952ba7f163c4a11628f55a4df523b3ef",
            "0x0000000000000000000000000000000000000000000000000000000000000000",
            "0x0000000000000000000000009c760302031d1122b214c5869e526bfd57f04cf1",
            "0x00000000000000000000000000000000000000000000000000000000000b3862"
          ],
          "data": "0x",
          "blockHash": "0x9fc192ad84b5bb20c519916501e856969143dc89b9a2b6c89053722b11f097de",
          "blockNumber": "0x24c4a48",
          "blockTimestamp": "0x6922f173",
          "transactionHash": "0xbdc800b53e0832e9b059eafb564fd151b74c8ce84931ed63f78a21b5ce968e8e",
          "transactionIndex": "0x197",
          "logIndex": "0x346",
          "removed": false
        },
        {
          "address": "0x498581ff718922c3f8e6a244956af099b2652b2b",
          "topics": [
            "0xf208f4912782fd25c7f114ca3723a2d5dd6f3bcc3ac8db5af63baa85f711d5ec",
            "0x4e5e918bd31b3ab25ac6b401452b635771c15f30fa6e4cdbb4838cc61ee06805",
            "0x0000000000000000000000007c5f5a4bbd8fd63184577525326123b519429bdc"
          ],
          "data": "0xffffffffffffffffffffffffffffffffffffffffffffffffffffffffffffff88000000000000000000000000000000000000000000000000000000000000007800000000000000000000000000000000000000000000000000000000000f424000000000000000000000000000000000000000000000000000000000000b3862",
          "blockHash": "0x9fc192ad84b5bb20c519916501e856969143dc89b9a2b6c89053722b11f097de",
          "blockNumber": "0x24c4a48",
          "blockTimestamp": "0x6922f173",
          "transactionHash": "0xbdc800b53e0832e9b059eafb564fd151b74c8ce84931ed63f78a21b5ce968e8e",
          "transactionIndex": "0x197",
          "logIndex": "0x347",
          "removed": false
        },
        {
          "address": "0x4aa1df02688241e4c665d4837a7c201cddf9f3cd",
          "topics": [
            "0xddf252ad1be2c89b69c2b068fc378daa952ba7f163c4a11628f55a4df523b3ef",
            "0x0000000000000000000000009c760302031d1122b214c5869e526bfd57f04cf1",
            "0x000000000000000000000000498581ff718922c3f8e6a244956af099b2652b2b"
          ],
          "data": "0x000000000000000000000000000000000000000000000000000000000000175e",
          "blockHash": "0x9fc192ad84b5bb20c519916501e856969143dc89b9a2b6c89053722b11f097de",
          "blockNumber": "0x24c4a48",
          "blockTimestamp": "0x6922f173",
          "transactionHash": "0xbdc800b53e0832e9b059eafb564fd151b74c8ce84931ed63f78a21b5ce968e8e",
          "transactionIndex": "0x197",
          "logIndex": "0x348",
          "removed": false
        },
        {
          "address": "0xbb9d7298273dfebe2706aafb06d7f1c10e8b356a",
          "topics": [
            "0xddf252ad1be2c89b69c2b068fc378daa952ba7f163c4a11628f55a4df523b3ef",
            "0x0000000000000000000000009c760302031d1122b214c5869e526bfd57f04cf1",
            "0x000000000000000000000000498581ff718922c3f8e6a244956af099b2652b2b"
          ],
          "data": "0x000000000000000000000000000000000000000000000000000000000000175e",
          "blockHash": "0x9fc192ad84b5bb20c519916501e856969143dc89b9a2b6c89053722b11f097de",
          "blockNumber": "0x24c4a48",
          "blockTimestamp": "0x6922f173",
          "transactionHash": "0xbdc800b53e0832e9b059eafb564fd151b74c8ce84931ed63f78a21b5ce968e8e",
          "transactionIndex": "0x197",
          "logIndex": "0x349",
          "removed": false
        }
      ],
      "logsBloom": "0x00000000000010000000000000000000000000000000000000000000000000000020000000000000000000000000000000200000000000000000000000002000000000000000000000000008000000000001000000000000000000000000000000000000020000000000000000000800040000000000000200000010000000008000000021004000000000000000010000800000000000000000000400000000004004020000011008000000000000000000000000000000000000000000000200000002000001000000000000000010800800080000000000000000000020000000000000000000008000000000000004000400002000000000000000000000",
      "type": "0x2",
      "transactionHash": "0xbdc800b53e0832e9b059eafb564fd151b74c8ce84931ed63f78a21b5ce968e8e",
      "transactionIndex": "0x197",
      "blockHash": "0x9fc192ad84b5bb20c519916501e856969143dc89b9a2b6c89053722b11f097de",
      "blockNumber": "0x24c4a48",
      "gasUsed": "0x6ba87",
      "effectiveGasPrice": "0x2180a",
      "from": "0x9c760302031d1122b214c5869e526bfd57f04cf1",
      "to": "0x7c5f5a4bbd8fd63184577525326123b519429bdc",
      "contractAddress": null,
      "l1BaseFeeScalar": "0x8dd",
      "l1BlobBaseFee": "0x1",
      "l1BlobBaseFeeScalar": "0x101c12",
      "l1Fee": "0x26b0aa3d",
      "l1GasPrice": "0x4990e63",
      "l1GasUsed": "0xff3"
    }
  ],
  "libraries": [],
  "pending": [],
  "returns": {},
  "timestamp": 1763897716782,
  "chain": 8453,
  "commit": "2a7733f"
}