{
  "transactions": [
    {
      "hash": "0x762e452ecf2572f95b5ca711c94efaec39e1172bd5a62ee7257eb0a1900de338",
      "transactionType": "CALL",
      "contractName": null,
      "contractAddress": "0x498581ff718922c3f8e6a244956af099b2652b2b",
      "function": "initialize((address,address,uint24,int24,address),uint160)",
      "arguments": [
        "(0x4aA1dF02688241e4c665D4837a7c201CddF9F3CD, 0xbB9d7298273dFEbe2706aafb06d7f1c10E8B356a, 0, 60, 0xC3CEe78d0825b24C684355de4e6FbD51F0b940c0)",
        "79228162514264337593543950336"
      ],
      "transaction": {
        "from": "0x9c760302031d1122b214c5869e526bfd57f04cf1",
        "to": "0x498581ff718922c3f8e6a244956af099b2652b2b",
        "gas": "0x116ff",
        "value": "0x0",
        "input": "0x6276cbbe0000000000000000000000004aa1df02688241e4c665d4837a7c201cddf9f3cd000000000000000000000000bb9d7298273dfebe2706aafb06d7f1c10e8b356a0000000000000000000000000000000000000000000000000000000000000000000000000000000000000000000000000000000000000000000000000000003c000000000000000000000000c3cee78d0825b24c684355de4e6fbd51f0b940c00000000000000000000000000000000000000001000000000000000000000000",
        "nonce": "0x3c",
        "chainId": "0x2105"
      },
      "additionalContracts": [],
      "isFixedGasLimit": false
    }
  ],
  "receipts": [
    {
      "status": "0x1",
      "cumulativeGasUsed": "0x248366e",
      "logs": [
        {
          "address": "0x498581ff718922c3f8e6a244956af099b2652b2b",
          "topics": [
            "0xdd466e674ea557f56295e2d0218a125ea4b4f0f6f3307b95f85e6110838d6438",
            "0x4e5e918bd31b3ab25ac6b401452b635771c15f30fa6e4cdbb4838cc61ee06805",
            "0x0000000000000000000000004aa1df02688241e4c665d4837a7c201cddf9f3cd",
            "0x000000000000000000000000bb9d7298273dfebe2706aafb06d7f1c10e8b356a"
          ],
          "data": "0x0000000000000000000000000000000000000000000000000000000000000000000000000000000000000000000000000000000000000000000000000000003c000000000000000000000000c3cee78d0825b24c684355de4e6fbd51f0b940c000000000000000000000000000000000000000010000000000000000000000000000000000000000000000000000000000000000000000000000000000000000",
          "blockHash": "0x81fd14bb1bae2517a6df9c5c42b18200860625b738c3330ca76eeba9d2fd42f1",
          "blockNumber": "0x24c3503",
          "blockTimestamp": "0x6922c6e9",
          "transactionHash": "0x762e452ecf2572f95b5ca711c94efaec39e1172bd5a62ee7257eb0a1900de338",
          "transactionIndex": "0xae",
          "logIndex": "0x10c",
          "removed": false
        }
      ],
      "logsBloom": "0x00000000000010000000000000000000000000000000000000000000000000000002000000000000000000000000000000000000000000000000000000000000000000000000000000000000000000004000000000000000000000000000000000000000000000000000000000000000000000000000000000000000000000000000000000004018000000000000001000000001000000000000000000200000000000000000000000000000000000000000000000400000000000000000000000000000000000000000000000000000000800080000000000000000000000000000000000000000008020000000000000000400000000000000000000000000",
      "type": "0x2",
      "transactionHash": "0x762e452ecf2572f95b5ca711c94efaec39e1172bd5a62ee7257eb0a1900de338",
      "transactionIndex": "0xae",
      "blockHash": "0x81fd14bb1bae2517a6df9c5c42b18200860625b738c3330ca76eeba9d2fd42f1",
      "blockNumber": "0x24c3503",
      "gasUsed": "0xc9fe",
      "effectiveGasPrice": "0x4a2f1",
      "from": "0x9c760302031d1122b214c5869e526bfd57f04cf1",
      "to": "0x498581ff718922c3f8e6a244956af099b2652b2b",
      "contractAddress": null,
      "l1BaseFeeScalar": "0x8dd",
      "l1BlobBaseFee": "0x1",
      "l1BlobBaseFeeScalar": "0x101c12",
      "l1Fee": "0x1cd945e4",
      "l1GasPrice": "0x5b8335d",
      "l1GasUsed": "0x86c"
    }
  ],
  "libraries": [],
  "pending": [],
  "returns": {},
  "timestamp": 1763886824021,
  "chain": 8453,
  "commit": "21204c4"
}