{
  "transactions": [
    {
      "hash": "0x380432971e5e509aa7f8d7a4fe84719a2723c4b6ed36b68f96a8a947ce059a46",
      "transactionType": "CREATE",
      "contractName": "PoolSwapTest",
      "contractAddress": "0xa22270354919793ab650639101d9563741239376",
      "function": null,
      "arguments": [
        "0x498581fF718922c3f8e6A244956aF099B2652b2b"
      ],
      "transaction": {
        "from": "0x9c760302031d1122b214c5869e526bfd57f04cf1",
        "gas": "0x1760f2",
        "value": "0x0",
        "input": "0x60a034609657601f61150238819003918201601f19168301916001600160401b03831184841017609a57808492602094604052833981010312609657516001600160a01b038116810360965760805260405161145390816100af8239608051818181608e0152818161035f015281816104ac015281816104ff0152818161055e01528181610a7101528181610ce101526110500152f35b5f80fd5b634e487b7160e01b5f52604160045260245ffdfe6080806040526004361015610012575f80fd5b5f3560e01c9081632229d0b414610aa057508063481c6a7514610a5c576391dd73461461003d575f80fd5b346109bb5760203660031901126109bb5760043567ffffffffffffffff81116109bb57366023820112156109bb57806004013567ffffffffffffffff81116109bb578101903660248301116109bb577f00000000000000000000000000000000000000000000000000000000000000006001600160a01b031633036109bb576020818303126109bb5760248101359067ffffffffffffffff82116109bb5781810183039261018084126109bb57604051936100f785610e10565b610105602485850101610eae565b85526040601f198201126109bb5760405161011f81610e5c565b61012d604486860101610ec2565b815261013d606486860101610ec2565b6020820152602086015260a0605f198201126109bb576040519061016082610e10565b61016e608486860101610eae565b825261017e60a486860101610eae565b602083015260c4858501013562ffffff811681036109bb57604083015260e485850101358060020b81036109bb5760608301528385016101040135916001600160a01b03831683036109bb576060926080820152604087015260ff1901126109bb576040516101ec81610e40565b6101fb61012485850101610ec2565b8152828401610144810135602083015261016401356001600160a01b03811681036109bb5760408201526060850152610184838301013567ffffffffffffffff81116109bb5761025393602480930193010101610eeb565b608082015260408101515181516102789130916001600160a01b039081169116611039565b604084015160200151845191935061029f925030916001600160a01b039081169116611039565b92915050610a17576109d2576040810151602061031f60608401519261035a60808601516103466040519687958695633cf3645360e21b875260048701906080908160018060a01b039182815116855282602082015116602086015262ffffff6040820151166040860152606081015160020b6060860152015116910152565b8051151560a4860152602081015160c4860152604001516001600160a01b031660e4850152565b610120610104840152610124830190610f31565b03815f7f00000000000000000000000000000000000000000000000000000000000000006001600160a01b03165af19081156109c7575f91610991575b5060408201515182516103b89130916001600160a01b039081169116611039565b6040850151602001518551919593506103e0925030916001600160a01b039081169116611039565b606084015180519194935091501561078457505f602060608301510151125f1461068557602060608201510151841261060a57610424848460801d600f0b14610f55565b5f82126105af5761047d935b5f8112610588575b5f831261052b575b5f81136104d9575b505f8213610481575b50506040519060208201526020815261046981610e5c565b604051918291602083526020830190610f31565b0390f35b604081015160209081015182519290910151516104d2939015159290916001600160a01b03918216917f0000000000000000000000000000000000000000000000000000000000000000911661132f565b5f80610451565b6040820151518251602084015151610525939015159290916001600160a01b03908116917f0000000000000000000000000000000000000000000000000000000000000000911661132f565b5f610448565b6040820151602001518251610583916001600160a01b03908116911661055086611015565b9060208087015101511515927f0000000000000000000000000000000000000000000000000000000000000000906110fd565b610440565b60408201515182516105aa916001600160a01b03908116911661055084611015565b610438565b60405162461bcd60e51b815260206004820152602d60248201527f64656c7461416674657231206973206e6f742067726561746572207468616e2060448201526c06f7220657175616c20746f203609c1b6064820152608490fd5b60405162461bcd60e51b815260206004820152604760248201527f64656c7461416674657230206973206e6f742067726561746572207468616e2060448201527f6f7220657175616c20746f20646174612e706172616d732e616d6f756e7453706064820152661958da599a595960ca1b608482015260a490fd5b5f84136107295761069a8284600f0b14610fb5565b60206060820151015182136106b25761047d93610430565b60a460405162461bcd60e51b815260206004820152604460248201527f64656c7461416674657231206973206e6f74206c657373207468616e206f722060448201527f657175616c20746f20646174612e706172616d732e616d6f756e745370656369606482015263199a595960e21b6084820152fd5b60405162461bcd60e51b815260206004820152602d60248201527f64656c7461416674657230206973206e6f74206c657373207468616e206f722060448201526c657175616c20746f207a65726f60981b6064820152608490fd5b602001515f1315610892576020606082015101518212610817576107ac8284600f0b14610fb5565b5f84126107bc5761047d93610430565b60405162461bcd60e51b815260206004820152602d60248201527f64656c7461416674657230206973206e6f742067726561746572207468616e2060448201526c06f7220657175616c20746f203609c1b6064820152608490fd5b60405162461bcd60e51b815260206004820152604760248201527f64656c7461416674657231206973206e6f742067726561746572207468616e2060448201527f6f7220657175616c20746f20646174612e706172616d732e616d6f756e7453706064820152661958da599a595960ca1b608482015260a490fd5b5f8213610939576108aa848460801d600f0b14610f55565b60206060820151015184136108c25761047d93610430565b60a460405162461bcd60e51b815260206004820152604460248201527f64656c7461416674657230206973206e6f74206c657373207468616e206f722060448201527f657175616c20746f20646174612e706172616d732e616d6f756e745370656369606482015263199a595960e21b6084820152fd5b60405162461bcd60e51b815260206004820152602a60248201527f64656c7461416674657231206973206e6f74206c657373207468616e206f72206044820152690657175616c20746f20360b41b6064820152608490fd5b90506020813d6020116109bf575b816109ac60209383610e8c565b810103126109bb57515f610397565b5f80fd5b3d915061099f565b6040513d5f823e3d90fd5b60405162461bcd60e51b815260206004820152601e60248201527f64656c74614265666f726531206973206e6f7420657175616c20746f203000006044820152606490fd5b60405162461bcd60e51b815260206004820152601e60248201527f64656c74614265666f726530206973206e6f7420657175616c20746f203000006044820152606490fd5b346109bb575f3660031901126109bb576040517f00000000000000000000000000000000000000000000000000000000000000006001600160a01b03168152602090f35b366003190161016081126109bb5760a0136109bb57610abe81610e10565b6001600160a01b0360043581811681036109bb5782526024359181831683036109bb576020928382015260443562ffffff811681036109bb5760408201526064358060020b81036109bb57606082015260843582811681036109bb57608082015260603660a31901126109bb57604051610b3781610e40565b60a43580151581036109bb57815260c4358482015260e43583811681036109bb5760408201526040610103193601126109bb5760405190610b7782610e5c565b6101043580151581036109bb5782526101243580151581036109bb578286015267ffffffffffffffff92610144358481116109bb575f93610ca6610cdd93610c918796610c66610bcc8c973690600401610eeb565b938d60405197610bdb89610e10565b3389528189019081526040890192835260608901948552608089019687526040519e8f9983808c0152511660408a0152518051151560608a01520151151560808801525160a08701906080908160018060a01b039182815116855282602082015116602086015262ffffff6040820151166040860152606081015160020b6060860152015116910152565b51805115156101408601526020810151610160860152604001516001600160a01b0316610180850152565b516101806101a08401526101c0830190610f31565b0395610cba601f1997888101835282610e8c565b6040519485809481936348c8949160e01b83528b60048401526024830190610f31565b03927f0000000000000000000000000000000000000000000000000000000000000000165af19182156109c7575f92610da0575b505082818051810103126109bb57820151904780610d34575b5050604051908152f35b5f80808093335af115610d475780610d2a565b601f3d0116604051906390bfb86560e01b82523360048301525f6024830152608060448301528060a00160648301523d60848301523d5f60a484013e808201600460a482015260c4633d2cec6f60e21b91015260e40190fd5b9091503d805f843e610db28184610e8c565b82019184818403126109bb5780519182116109bb570181601f820112156109bb57805190610ddf82610ecf565b92610ded6040519485610e8c565b8284528583830101116109bb57815f92868093018386015e830101528380610d11565b60a0810190811067ffffffffffffffff821117610e2c57604052565b634e487b7160e01b5f52604160045260245ffd5b6060810190811067ffffffffffffffff821117610e2c57604052565b6040810190811067ffffffffffffffff821117610e2c57604052565b67ffffffffffffffff8111610e2c57604052565b90601f8019910116810190811067ffffffffffffffff821117610e2c57604052565b35906001600160a01b03821682036109bb57565b359081151582036109bb57565b67ffffffffffffffff8111610e2c57601f01601f191660200190565b81601f820112156109bb57803590610f0282610ecf565b92610f106040519485610e8c565b828452602083830101116109bb57815f926020809301838601378301015290565b805180835260209291819084018484015e5f828201840152601f01601f1916010190565b15610f5c57565b60405162461bcd60e51b815260206004820152602b60248201527f64656c74612e616d6f756e74302829206973206e6f7420657175616c20746f2060448201526a064656c74614166746572360ac1b6064820152608490fd5b15610fbc57565b60405162461bcd60e51b815260206004820152602b60248201527f64656c74612e616d6f756e74312829206973206e6f7420657175616c20746f2060448201526a64656c746141667465723160a81b6064820152608490fd5b600160ff1b8114611025575f0390565b634e487b7160e01b5f52601160045260245ffd5b929061104590846113d5565b926001600160a01b037f00000000000000000000000000000000000000000000000000000000000000008116918161107d84836113d5565b95165f5216602052602060405f2060246040518094819363789add5560e11b835260048301525afa9081156109c7575f916110b6575090565b90506020813d6020116110dd575b816110d160209383610e8c565b810103126109bb575190565b3d91506110c4565b908160209103126109bb575180151581036109bb5790565b92931561116c576001600160a01b0390811690813b156109bb57604051637a94c56560e11b81526001600160a01b039093166004840152909216602482015260448101929092525f908290818381606481015b03925af180156109c7576111615750565b61116a90610e78565b565b6001600160a01b03929091908316806111d05750509060046020926040519485938492630476982d60e21b8452165af180156109c7576111a95750565b602090813d83116111c9575b6111bf8183610e8c565b810103126109bb57565b503d6111b5565b909391831691823b156109bb57604093845195632961046560e21b87525f968460048201525f81602481838a5af1801561132557611312575b5016853082146112b85760209291606491875195869485936323b872dd60e01b8552600485015288602485015260448401525af180156112ab5791602091859361127e575b505b6004845180968193630476982d60e21b83525af19182156112745750506111a95750565b51903d90823e3d90fd5b61129d90833d85116112a4575b6112958183610e8c565b8101906110e5565b505f61124e565b503d61128b565b50505051903d90823e3d90fd5b92905060446020928651948593849263a9059cbb60e01b845288600485015260248401525af180156112ab579160209185936112f5575b50611250565b61130b90833d85116112a4576112958183610e8c565b505f6112ef565b61131d919750610e78565b5f955f611209565b87513d5f823e3d90fd5b929315611386576001600160a01b0390811690813b156109bb57604051630ab714fb60e11b81526001600160a01b039093166004840152909216602482015260448101929092525f90829081838160648101611150565b9092916001600160a01b0391821690813b156109bb575f6064928195856040519889978896630b0d9c0960e01b885216600487015216602485015260448401525af180156109c7576111615750565b6001600160a01b0390811690816113ec5750503190565b6040516370a0823160e01b815292166004830152602090829060249082905afa9081156109c7575f916110b657509056fea2646970667358221220c5eea1602389833d64e08327ddcb21a1529bee216fd48c1c785e79b63540415464736f6c63430008190033000000000000000000000000498581ff718922c3f8e6a244956af099b2652b2b",
        "nonce": "0x48",
        "chainId": "0x2105"
      },
      "additionalContracts": [],
      "isFixedGasLimit": false
    },
    {
      "hash": "0xde6bd7259a9e980086f08972acfb31ac7e2424d511ae77caddd69335d04b4a8c",
      "transactionType": "CALL",
      "contractName": null,
      "contractAddress": "0x4aa1df02688241e4c665d4837a7c201cddf9f3cd",
      "function": "approve(address,uint256)",
      "arguments": [
        "0xa22270354919793ab650639101D9563741239376",
        "115792089237316195423570985008687907853269984665640564039457584007913129639935"
      ],
      "transaction": {
        "from": "0x9c760302031d1122b214c5869e526bfd57f04cf1",
        "to": "0x4aa1df02688241e4c665d4837a7c201cddf9f3cd",
        "gas": "0x10868",
        "value": "0x0",
        "input": "0x095ea7b3000000000000000000000000a22270354919793ab650639101d9563741239376ffffffffffffffffffffffffffffffffffffffffffffffffffffffffffffffff",
        "nonce": "0x49",
        "chainId": "0x2105"
      },
      "additionalContracts": [],
      "isFixedGasLimit": false
    },
    {
      "hash": "0xf4cc56ef21dccdbfa3717e22fb0c7f362b634b4a74544b7c6783c5394c4fe28c",
      "transactionType": "CALL",
      "contractName": null,
      "contractAddress": "0xbb9d7298273dfebe2706aafb06d7f1c10e8b356a",
      "function": "approve(address,uint256)",
      "arguments": [
        "0xa22270354919793ab650639101D9563741239376",
        "115792089237316195423570985008687907853269984665640564039457584007913129639935"
      ],
      "transaction": {
        "from": "0x9c760302031d1122b214c5869e526bfd57f04cf1",
        "to": "0xbb9d7298273dfebe2706aafb06d7f1c10e8b356a",
        "gas": "0x10867",
        "value": "0x0",
        "input": "0x095ea7b3000000000000000000000000a22270354919793ab650639101d9563741239376ffffffffffffffffffffffffffffffffffffffffffffffffffffffffffffffff",
        "nonce": "0x4a",
        "chainId": "0x2105"
      },
      "additionalContracts": [],
      "isFixedGasLimit": false
    },
    {
      "hash": "0x7a4883de27fc73d3ff7210355780e072d1c10981522a60a8823ae27593f7248c",
      "transactionType": "CALL",
      "contractName": "PoolSwapTest",
      "contractAddress": "0xa22270354919793ab650639101d9563741239376",
      "function": "swap((address,address,uint24,int24,address),(bool,int256,uint160),(bool,bool),bytes)",
      "arguments": [
        "(0x4aA1dF02688241e4c665D4837a7c201CddF9F3CD, 0xbB9d7298273dFEbe2706aafb06d7f1c10E8B356a, 0, 60, 0xC3CEe78d0825b24C684355de4e6FbD51F0b940c0)",
        "(true, -1000000000000000000, 4295128740)",
        "(false, false)",
        "0x"
      ],
      "transaction": {
        "from": "0x9c760302031d1122b214c5869e526bfd57f04cf1",
        "to": "0xa22270354919793ab650639101d9563741239376",
        "gas": "0x96ee1",
        "value": "0x0",
        "input": "0x2229d0b40000000000000000000000004aa1df02688241e4c665d4837a7c201cddf9f3cd000000000000000000000000bb9d7298273dfebe2706aafb06d7f1c10e8b356a0000000000000000000000000000000000000000000000000000000000000000000000000000000000000000000000000000000000000000000000000000003c000000000000000000000000c3cee78d0825b24c684355de4e6fbd51f0b940c00000000000000000000000000000000000000000000000000000000000000001fffffffffffffffffffffffffffffffffffffffffffffffff21f494c589c000000000000000000000000000000000000000000000000000000000001000276a40000000000000000000000000000000000000000000000000000000000000000000000000000000000000000000000000000000000000000000000000000000000000000000000000000000000000000000000000000000000000000000001600000000000000000000000000000000000000000000000000000000000000000",
        "nonce": "0x4b",
        "chainId": "0x2105"
      },
      "additionalContracts": [],
      "isFixedGasLimit": false
    }
  ],
  "receipts": [
    {
      "status": "0x1",
      "cumulativeGasUsed": "0x24e373f",
      "logs": [],
      "logsBloom": "0x00000000000000000000000000000000000000000000000000000000000000000000000000000000000000000000000000000000000000000000000000000000000000000000000000000000000000000000000000000000000000000000000000000000000000000000000000000000000000000000000000000000000000000000000000000000000000000000000000000000000000000000000000000000000000000000000000000000000000000000000000000000000000000000000000000000000000000000000000000000000000000000000000000000000000000000000000000000000000000000000000000000000000000000000000000000",
      "type": "0x2",
      "transactionHash": "0x380432971e5e509aa7f8d7a4fe84719a2723c4b6ed36b68f96a8a947ce059a46",
      "transactionIndex": "0xd6",
      "blockHash": "0xa09f6cf52b5cb477aba5c38a388739d413449eabac251a34fad7309b88309bee",
      "blockNumber": "0x24c4b50",
      "gasUsed": "0x11fbce",
      "effectiveGasPrice": "0x1fc99",
      "from": "0x9c760302031d1122b214c5869e526bfd57f04cf1",
      "to": null,
      "contractAddress": "0xa22270354919793ab650639101d9563741239376",
      "l1BaseFeeScalar": "0x8dd",
      "l1BlobBaseFee": "0x1",
      "l1BlobBaseFeeScalar": "0x101c12",
      "l1Fee": "0x119a2a1b",
      "l1GasPrice": "0x4d93afc",
      "l1GasUsed": "0xaa8b"
    },
    {
      "status": "0x1",
      "cumulativeGasUsed": "0x24eec0a",
      "logs": [
        {
          "address": "0x4aa1df02688241e4c665d4837a7c201cddf9f3cd",
          "topics": [
            "0x8c5be1e5ebec7d5bd14f71427d1e84f3dd0314c0f7b2291e5b200ac8c7c3b925",
            "0x0000000000000000000000009c760302031d1122b214c5869e526bfd57f04cf1",
            "0x000000000000000000000000a22270354919793ab650639101d9563741239376"
          ],
          "data": "0xffffffffffffffffffffffffffffffffffffffffffffffffffffffffffffffff",
          "blockHash": "0xa09f6cf52b5cb477aba5c38a388739d413449eabac251a34fad7309b88309bee",
          "blockNumber": "0x24c4b50",
          "blockTimestamp": "0x6922f383",
          "transactionHash": "0xde6bd7259a9e980086f08972acfb31ac7e2424d511ae77caddd69335d04b4a8c",
          "transactionIndex": "0xd7",
          "logIndex": "0x1a1",
          "removed": false
        }
      ],
      "logsBloom": "0x00000000000000000000000000000000000000000000000000000000000000000000000000000000000000000000000000000000000000000000000000200000000000000000000000200000000000000001000000000000000000000000000000000000008000000000000000000000000000000000000200000000000000000002000000000000000000000000010000000000000000000000000000000000020000000000011000000000000000000000000000000000000000000000000000000000000000000000000000000010000000000000000000000000000000000010000000000000000000000000000000000000000000000000000000000000",
      "type": "0x2",
      "transactionHash": "0xde6bd7259a9e980086f08972acfb31ac7e2424d511ae77caddd69335d04b4a8c",
      "transactionIndex": "0xd7",
      "blockHash": "0xa09f6cf52b5cb477aba5c38a388739d413449eabac251a34fad7309b88309bee",
      "blockNumber": "0x24c4b50",
      "gasUsed": "0xb4cb",
      "effectiveGasPrice": "0x1fc99",
      "from": "0x9c760302031d1122b214c5869e526bfd57f04cf1",
      "to": "0x4aa1df02688241e4c665d4837a7c201cddf9f3cd",
      "contractAddress": null,
      "l1BaseFeeScalar": "0x8dd",
      "l1BlobBaseFee": "0x1",
      "l1BlobBaseFeeScalar": "0x101c12",
      "l1Fee": "0x119a2a1b",
      "l1GasPrice": "0x4d93afc",
      "l1GasUsed": "0x640"
    },
    {
      "status": "0x1",
      "cumulativeGasUsed": "0x24fa0d4",
      "logs": [
        {
          "address": "0xbb9d7298273dfebe2706aafb06d7f1c10e8b356a",
          "topics": [
            "0x8c5be1e5ebec7d5bd14f71427d1e84f3dd0314c0f7b2291e5b200ac8c7c3b925",
            "0x0000000000000000000000009c760302031d1122b214c5869e526bfd57f04cf1",
            "0x000000000000000000000000a22270354919793ab650639101d9563741239376"
          ],
          "data": "0xffffffffffffffffffffffffffffffffffffffffffffffffffffffffffffffff",
          "blockHash": "0xa09f6cf52b5cb477aba5c38a388739d413449eabac251a34fad7309b88309bee",
          "blockNumber": "0x24c4b50",
          "blockTimestamp": "0x6922f383",
          "transactionHash": "0xf4cc56ef21dccdbfa3717e22fb0c7f362b634b4a74544b7c6783c5394c4fe28c",
          "transactionIndex": "0xd8",
          "logIndex": "0x1a2",
          "removed": false
        }
      ],
      "logsBloom": "0x00000000000000000000000000000000000000000000000000000000000000000000000000000000000000000000000000000000000000000000000000200000000000000000000000200000000000000000000000000000000000000000000000000000008000000000000000000000000000000000000000000000000000000002000000000000000000000000010000800000000000000000000000000000020000020000010000000000000000000000000000000000000000000000000000000000000000000000000000000010800000000000000000000000000000000010000000000000000000000000000000000000000000000000000000000000",
      "type": "0x2",
      "transactionHash": "0xf4cc56ef21dccdbfa3717e22fb0c7f362b634b4a74544b7c6783c5394c4fe28c",
      "transactionIndex": "0xd8",
      "blockHash": "0xa09f6cf52b5cb477aba5c38a388739d413449eabac251a34fad7309b88309bee",
      "blockNumber": "0x24c4b50",
      "gasUsed": "0xb4ca",
      "effectiveGasPrice": "0x1fc99",
      "from": "0x9c760302031d1122b214c5869e526bfd57f04cf1",
      "to": "0xbb9d7298273dfebe2706aafb06d7f1c10e8b356a",
      "contractAddress": null,
      "l1BaseFeeScalar": "0x8dd",
      "l1BlobBaseFee": "0x1",
      "l1BlobBaseFeeScalar": "0x101c12",
      "l1Fee": "0x119a2a1b",
      "l1GasPrice": "0x4d93afc",
      "l1GasUsed": "0x640"
    },
    {
      "status": "0x1",
      "cumulativeGasUsed": "0x2567529",
      "logs": [
        {
          "address": "0x498581ff718922c3f8e6a244956af099b2652b2b",
          "topics": [
            "0x40e9cecb9f5f1f1c5b9c97dec2917b7ee92e57ba5563708daca94dd84ad7112f",
            "0x4e5e918bd31b3ab25ac6b401452b635771c15f30fa6e4cdbb4838cc61ee06805",
            "0x000000000000000000000000a22270354919793ab650639101d9563741239376"
          ],
          "data": "0xffffffffffffffffffffffffffffffffffffffffffffffffffffffffffffe87e000000000000000000000000000000000000000000000000000000000000175d00000000000000000000000000000000000000000000000000000001000276a40000000000000000000000000000000000000000000000000000000000000000fffffffffffffffffffffffffffffffffffffffffffffffffffffffffff276180000000000000000000000000000000000000000000000000000000000000000",
          "blockHash": "0xa09f6cf52b5cb477aba5c38a388739d413449eabac251a34fad7309b88309bee",
          "blockNumber": "0x24c4b50",
          "blockTimestamp": "0x6922f383",
          "transactionHash": "0x7a4883de27fc73d3ff7210355780e072d1c10981522a60a8823ae27593f7248c",
          "transactionIndex": "0xd9",
          "logIndex": "0x1a3",
          "removed": false
        },
        {
          "address": "0x4aa1df02688241e4c665d4837a7c201cddf9f3cd",
          "topics": [
            "0xddf252ad1be2c89b69c2b068fc378daa952ba7f163c4a11628f55a4df523b3ef",
            "0x0000000000000000000000009c760302031d1122b214c5869e526bfd57f04cf1",
            "0x000000000000000000000000498581ff718922c3f8e6a244956af099b2652b2b"
          ],
          "data": "0x0000000000000000000000000000000000000000000000000000000000001782",
          "blockHash": "0xa09f6cf52b5cb477aba5c38a388739d413449eabac251a34fad7309b88309bee",
          "blockNumber": "0x24c4b50",
          "blockTimestamp": "0x6922f383",
          "transactionHash": "0x7a4883de27fc73d3ff7210355780e072d1c10981522a60a8823ae27593f7248c",
          "transactionIndex": "0xd9",
          "logIndex": "0x1a4",
          "removed": false
        },
        {
          "address": "0xbb9d7298273dfebe2706aafb06d7f1c10e8b356a",
          "topics": [
            "0xddf252ad1be2c89b69c2b068fc378daa952ba7f163c4a11628f55a4df523b3ef",
            "0x000000000000000000000000498581ff718922c3f8e6a244956af099b2652b2b",
            "0x0000000000000000000000009c760302031d1122b214c5869e526bfd57f04cf1"
          ],
          "data": "0x000000000000000000000000000000000000000000000000000000000000175d",
          "blockHash": "0xa09f6cf52b5cb477aba5c38a388739d413449eabac251a34fad7309b88309bee",
          "blockNumber": "0x24c4b50",
          "blockTimestamp": "0x6922f383",
          "transactionHash": "0x7a4883de27fc73d3ff7210355780e072d1c10981522a60a8823ae27593f7248c",
          "transactionIndex": "0xd9",
          "logIndex": "0x1a5",
          "removed": false
        }
      ],
      "logsBloom": "0x0000000000001000000000000000000000000000000000000000000000000000002000000000000000000000000000000000000004000000000000000000000000000000000000000020000800000000000100000000002000000000000000000000000000800000000000000000000000000000000000020000001000000000000200000000400000000000000001000080000000000000000000040000000000400002000001100000000000000000000000000000000000000000000000000000000200000000000000000000001080080008000000000000000000000000000000000000000000c000000000000000000400000000000000000000000000",
      "type": "0x2",
      "transactionHash": "0x7a4883de27fc73d3ff7210355780e072d1c10981522a60a8823ae27593f7248c",
      "transactionIndex": "0xd9",
      "blockHash": "0xa09f6cf52b5cb477aba5c38a388739d413449eabac251a34fad7309b88309bee",
      "blockNumber": "0x24c4b50",
      "gasUsed": "0x6d455",
      "effectiveGasPrice": "0x1fc99",
      "from": "0x9c760302031d1122b214c5869e526bfd57f04cf1",
      "to": "0xa22270354919793ab650639101d9563741239376",
      "contractAddress": null,
      "l1BaseFeeScalar": "0x8dd",
      "l1BlobBaseFee": "0x1",
      "l1BlobBaseFeeScalar": "0x101c12",
      "l1Fee": "0x119a2a1b",
      "l1GasPrice": "0x4d93afc",
      "l1GasUsed": "0xa25"
    }
  ],
  "libraries": [],
  "pending": [],
  "returns": {},
  "timestamp": 1763898242803,
  "chain": 8453,
  "commit": "cd8a518"
}